:080800008431022C8731F62F30
:100C5800640080010131890B2D2E0034F000200042
:100C6800111E332E700823009A00080021000E136D
:100C780023008E0121008E17083023009F0090303A
:100C88009D0024309E00CF309B009C01080078080E
:100C980079040319722EFD01FD0AF91B5D2E01303E
:100CA800F835F90D890B542E0130FC007C08FD073E
:100CB800512E79087B02031D632E78087A02031CE3
:100CC800692E7808FA027908FB3B0130F936F80CEE
:100CD800890B6A2E0130FD02031D5D2E7B08F90089
:100CE8007A08F8000800F501F60170087104031984
:100CF800A62EF701F70AF11B8B2E0130F035F10D06
:100D0800890B822E0130F4007408F7077F2E01301A
:100D1800F535F60D890B8C2E71087302031D962E7E
:100D280070087202031C9D2E7008F2027108F33BD2
:100D380075140130F136F00C890B9E2E0130F70244
:100D4800031D8B2E7608F1007508F0000800863127
:100D58003A2686310B302000C5002630C4005D30AD
:100D6800890BB42EC40BB42EC50BB42E00320A3036
:100D780086313226863153308631322686315430D8
:100D88008631322686314C308631322686310A3019
:100D98008631322686312000C601C7014708850002
:100DA80046088400003084078830853D1200031906
:100DB800EF2E4708850046088400003084078830F5
:100DC800853D000886313226863101302000C6076D
:100DD8000030C73DD22E2030B5008830B6001E3016
:100DE800840088308500003FB700013FB8002130FB
:100DF8008731292786312000C801C9014808213ECA
:100E08008600870101080319172F4808213E86002C
:100E18008701010886313226863101302000C80753
:100E28000030C93D022F2000911E172F23001908FA
:100E38002000C4004408A0002008863132268631EC
:100E48000A30863132268631172F2000C20037300B
:100E5800B9003908BD003608BA003508B900B50A26
:100E68000319B60A390884003A0885000008BB004F
:100E78003B08C30043080319F12F25304306031923
:100E8800512F4308B90042088600870139088100BC
:100E98000130B9003908C2072F2FBE013608BA0041
:100EA8003508B900B50A0319B60A390884003A08A2
:100EB80085000008C300003A0319F12F643A0319AA
:100EC800692F0D3A0319692F2F2F3D0886008701D6
:100ED800403FC000413FC1000230B9003908BD079A
:100EE800C11F7F2F0330B9003908BE04C009C109EA
:100EF800C00A0319C10AC301C30A0530430603190E
:100F0800A42F4308B900BA01B935BA0D143039070E
:100F1800840088303A3D8500003FBB00013FBC009B
:100F28003C084102031D9A2F3B084002031CA42FD2
:100F38000130B9003908C30705304306031D852F62
:100F48003E0803390319B32F2D30B9004208860033
:100F58008701390881000130B9003908C207430800
:100F6800B9003908BF00FF30B9003908BF073F0A88
:100F780003192F2F0A30F8000030F9003F08B90094
:100F8800BA01B935BA0D14303907840088303A3DB2
:100F98008500003FF000013FF1004108F3004008E0
:100FA800F2008631772687317108FB007008FA0055
:100FB80086314B2687317808303E2000BB003B083D
:100FC800C3004308B9004208860087013908810038
:100FD8000130B9003908C207B72F420886008701D7
:100FE80081010800203084000030850015308631EA
:100FF8002C2620008631AB2E533477346934733471
:10100800733420345434493420344C344134423419
:101018002034003400340034003400340034003408
:10102800013400340A34003464340034E8340334BE
:0E10380010342734E134073425346434003496
:00000001FF
